:020000020000FC
:040000000C943F021B
:1001EC0043757272656E742053746174652061740A
:1001FC003A200000204A6F79737469636B20583A77
:10020C00592000008AB1806E8AB984B1836084B9A8
:10021C008AB1837E8AB98BB18C618BB908952FEF2B
:10022C0081EE94E0215080409040E1F70895212F19
:10023C002F70206312951F7010630895212F1F706B
:10024C0000E31A3008F007E3100F22952F7000E33B
:10025C002A3008F007E3200F089540E04093C500D2
:10026C0047E64093C40048E14093C10046E0409308
:10027C00C20008954091C00045FFFCCF0093C6001A
:10028C0008954091C00047FFFCCF6091C6000895CF
:10029C00013029F00191003039F0ECDFFBCF0591F2
:1002AC00003011F0E7DFFBCF08950E9447016D305D
:1002BC0019F430E03C9308956C93062F0E94400192
:1002CC00683049F4AA95B04000E20E94400108E071
:1002DC000E944001EACFA39540E0B41FE6CF0895F9
:1002EC000DE00E9440010AE00E944001089580E464
:1002FC0080937C0087E880937A000895ECE7F0E027
:10030C0090818770987F892B8083EAE7F0E0808169
:10031C0080648083808186FD0C94900180917800AC
:10032C0090917900089550E05093B90058E450939F
:10033C00B80054E05093BC00089544EA4093BC00CC
:10034C00ECEBF0E040814423ECF77093BB0084E8C5
:10035C008093BC00ECEBF0E080818823ECF74091BB
:10036C00B900487B81E0483109F080E008950E9493
:10037C00A301089584E98093BC00089554E8509338
:10038C00BC005091BC0057FFFCCFB091BB0008954E
:10039C0084EC8093BC00ECEBF0E080818823ECF7DC
:1003AC008091BB00089584E88093BC00ECEBF0E0F6
:1003BC0080818823ECF78091BB0008958093BB006B
:1003CC0084E88093BC00CCEBD0E088818823ECF7E8
:1003DC004091B90081E0463209F480E008950E9412
:1003EC00BD01892F0E94E401862F0E94E4010E9426
:1003FC00C0010895672F0E94BD01892F0E94E4015E
:10040C0071E0760F0E94BD010E94D901682F0E94F5
:10041C00C001862F08950E94BD01892F0E94E4011E
:10042C00209739F0F80181918F010E94E401219706
:10043C00C9F70E94C001089570ED0E94BD0170EDD6
:10044C0097E060E00E94F501089570ED0E940002B3
:10045C00089570ED97E060E00E94F50170ED91E079
:10046C0068E50E94F50170ED90E061E10E94F501F4
:10047C00089508E00EBF0FEF0DBF0E9408010E9407
:10048C0033010E947D010E9499010E9422020E9468
:10049C002F020E9496020E9477024B9B0C946602DC
:1004AC004C9B0C946B024A990C94610281E08093F2
:1004BC0000010C944F0283E0809300010C944F02D6
:1004CC0084E0809300010C944F0282E08093000141
:1004DC000C944F0280E0809300010C944F020C941A
:1004EC004F0280E00E9484019295990F990F869596
:1004FC008695892B8093030181E00E94840192955B
:10050C00990F990F86958695892B8093020190E01F
:10051C00833718F0873808F491E09093040108951C
:10052C00609107016A3029F460E0609307010E9432
:10053C00A702609107016395609307010E94150162
:10054C0008950E94760101E0F1E0ECEE0E944E016C
:10055C0091E00E942B02182F0E941D01012F0E9476
:10056C004001022F0E9440010AE30E94400190E0EA
:10057C000E942B02182F0E941D01012F0E94400186
:10058C00022F0E9440010DE20E94400110910001D7
:10059C000E942401012F0E94400101E0F2E0E0E002
:1005AC000E944E01109102010E942401022F0E9410
:1005BC004001012F0E9440010AE30E94400110916A
:1005CC0003010E942401022F0E944001012F0E946E
:0405DC00400108953D
:00000001FF
