:020000020000FC
:040000000C94370322
:1001EC002054696D653A200020436F6F6B20546971
:1001FC006D653A2000002053746174653A2000004C
:10020C00204A6F79737469636B20583A5920000047
:10021C008AB1806E8AB984B1836084B98AB1837ED5
:10022C008AB98BB18C618BB903E804BD05E005BDBF
:10023C0007E107BD08952FEF81EE94E02150804037
:10024C009040E1F70895212F2F70206312951F70B5
:10025C0010630895212F1F7000E31A3008F007E394
:10026C00100F22952F7000E32A3008F007E3200FBF
:10027C000895E2EAF2E0A8E0B1E02FE22590359093
:10028C00239502191309E0F7020D131D2D93C89540
:10029C00002099F708951027E80364000A00010074
:1002AC00000040E458EC6AEF000000006A95E1F7AA
:1002BC005A95C9F74A95B1F70895080141E12218FA
:1002CC003324001C111C4A9559F0221C331C221A91
:1002DC00330A20F4220E331E8894F3CF0894F1CF06
:1002EC00089549E02218002E001C4A9541F0221C6A
:1002FC00221A18F4220E8894F7CF0894F5CF08959B
:10030C0040E04093C50047E64093C40048E1409369
:10031C00C10046E04093C20008954091C00045FFE3
:10032C00FCCF0093C60008954091C00047FFFCCF5E
:10033C006091C6000895013029F00191003039F028
:10034C00ECDFFBCF0591003011F0E7DFFBCF089518
:10035C000E949A016D3019F430E03C9308956C932F
:10036C00062F0E949301683049F4AA95B04000E230
:10037C000E94930108E00E949301EACFA39540E00C
:10038C00B41FE6CF08950DE00E9493010AE00E948D
:10039C009301089580E480937C0087E880937A0031
:1003AC000895ECE7F0E090818770987F892B80832B
:1003BC00EAE7F0E0808180648083808186FD0C9484
:1003CC00E3018091780090917900089550E050936A
:1003DC00B90058E45093B80054E05093BC00089511
:1003EC0044EA4093BC00ECEBF0E040814423ECF792
:1003FC007093BB0084E88093BC00ECEBF0E0808150
:10040C008823ECF74091B900487B81E0483109F032
:10041C0080E008950E94F601089584E98093BC0061
:10042C00089554E85093BC005091BC0057FFFCCF8A
:10043C00B091BB00089584EC8093BC00ECEBF0E031
:10044C0080818823ECF78091BB00089584E8809329
:10045C00BC00ECEBF0E080818823ECF78091BB00D2
:10046C0008958093BB0084E88093BC00CCEBD0E073
:10047C0088818823ECF74091B90081E0463209F479
:10048C0080E008950E941002892F0E943702862F67
:10049C000E9437020E9413020895672F0E941002D7
:1004AC00892F0E94370271E0760F0E9410020E9481
:1004BC002C02682F0E941302862F08950E941002AE
:1004CC00892F0E943702209739F0F80181918F0112
:1004DC000E9437022197C9F70E941302089570ED0C
:1004EC000E94100270ED97E060E00E9448020895AF
:1004FC0070ED0E945302089570ED97E060E00E9449
:10050C00480270ED92E066E10E94480270ED91E0C5
:10051C0068E50E94480270ED90E061E10E9448029B
:10052C00089570EE0E94100281E20E9437020E9430
:10053C0013020E94100281E80E9437020E941302EB
:10054C000E94100285EE0E9437020E94130200E204
:10055C0010E00E94BE0200E211E00E94BE0200E226
:10056C0012E00E94BE0200E213E00E94BE02089557
:10057C00EEEAF5E00052000FE00F00E0F01F2591CD
:10058C00349170EE0E941002812F880F0E94370266
:10059C00822F0E943702832F0E9437020E9413027F
:1005AC000895000006002002CE12ED12240C5D23EB
:1005BC00000400240009C03FC0120008C000000065
:1005CC00000C3F000600DB00CF00E600ED00FD0054
:1005DC000700FF00EF000012000A0024C800000909
:1005EC008310BB02F7008F1239000F12F900710053
:1005FC00BD00F60000121E007024380036053621AE
:10060C003F00F3003F20F320ED0001123E00300CC0
:10061C003628002D0015090C390000210F00030CA1
:10062C000800000158107820D8008E085808710076
:10063C008E04701000100E0000363000D4105010D4
:10064C00DC00700186045000882078001C00042017
:10065C001428C0280C2048084909001289242005B8
:10066C00FF3F08E00EBF0FEF0DBF0E940E010E946E
:10067C0086010E94D0010E94EC010E9475020E942A
:10068C0097020C946C030E94E5034B9B0C94930310
:10069C004C9B0C947C03809100014A990C94600350
:1006AC008330D9F1813081F1843071F1803061F186
:1006BC000C9449030E94C60380910001833019F306
:1006CC00909104019130F9F20C949C0380E080939A
:1006DC0000010E94820280E0809307018093050153
:1006EC008093060158985F980C94490381E080939D
:1006FC00000128985F9807E107BD80E08093050111
:10070C00809306010C94490383E080930001289A9E
:10071C005F980EE107BD0C94490384E080930001BF
:10072C0028985F9A07E107BD0C94490382E08093F7
:10073C00000158985F9800E007BDA0910501B091A9
:10074C00060150910201573838F4B03011F4A03042
:10075C0021F01A970C94B3031A96A0930501B09349
:10076C0006010E9409040E9457010E94C603509181
:10077C0004015030D9F284E0809300010C944903B9
:10078C0080E00E94D7019295990F990F86958695D6
:10079C00892B8093030181E00E94D7019295990FD8
:1007AC00990F86958695892B8093020190E083376B
:1007BC0018F0873808F491E09093040108950E9492
:1007CC0021015D98609107016A30B9F460E0609393
:1007DC00070170910001733071F4A0910501B09183
:1007EC000601A395119711F40C947C031197A09317
:1007FC000501B09306010E940904609107016395FD
:10080C006093070108950E94C90101E0F1E0ECEE4C
:10081C000E94A1010E94420401E0F1E0E4EF0E9479
:10082C00A1010E94930401E0F2E0E2E00E94A10128
:10083C00109100010E943001012F0E94930101E0F0
:10084C00F2E0ECE00E94A101109102010E94300143
:10085C00022F0E949301012F0E9493010AE30E9430
:10086C009301109103010E943001022F0E94930109
:10087C00012F0E949301089592E00E947E02182F8E
:10088C000E942901012F0E949301022F0E949301C3
:10089C000AE30E94930191E00E947E02182F0E94AD
:1008AC002901012F0E949301022F0E9493010AE358
:1008BC000E94930190E00E947E02182F0E94290151
:1008CC00012F0E949301022F0E949301809100013D
:1008DC00833011F1843001F18230F1F092E00E940A
:1008EC007E02182F0E9429012F93012F10E00E94E5
:1008FC00BE020F9111E00E94BE0291E00E947E02A6
:10090C00182F0E9429012F93012F12E00E94BE0282
:10091C000F9113E00E94BE02089500910501109101
:10092C0006010E943F0120E020930D0120930E014F
:10093C0020930F01E8E0F1E000E00E94A10180911A
:10094C000001833029F0843019F0823009F00895C9
:10095C0000910501109106012CE330E00E94630127
:10096C00402C522C042D2AE00E94770100E3000D4C
:10097C0010E00E94BE0200E3020D11E00E94BE02D4
:10098C00052D2AE00E94770100E3000D12E00E9481
:0E099C00BE0200E3020D13E00E94BE020895A9
:00000001FF
